H0000010020000000000                                        18052015TMNWLS                                                                                                                                                                                      

D000002002000000000017052015201609HIHACKERS                HIHIHIHACKERS            16870712            010420152241363617                      00210000CMBD00000000000000100000000                                                                   0000000000

D000003002000000000018052015080725HHIHACKERS               HHIHACKERS               00153071            900010010883                            01400000CMBD00000000000000039900000                                                                   0000000000

T00000400200000000000000000000000000000000000013990000000200000000000000000000000                                                                                                                                                                               
